:0600000000F07CEF00F0AF
:10000800FFFF05829EA60BEF00F00EEF00F0FFFF4A
:1000180078EF00F0FFFFC698C6BC15EF00F018EFA8
:1000280000F0FFFF21EF00F0FFFFC6AE1EEF00F06B
:1000380021EF00F0FFFF28EF00F0FFFFC9CF01F02C
:10004800026AC69CC69EC688FFFFC7BA2EEF00F09C
:1000580031EF00F0FFFF50EF00F0FFFFC7B437EFBC
:1000680000F03AEF00F0FFFF50EF00F0FFFFC9CFBC
:1000780001F0026A015090EC00F0FFFFC7A047EFC3
:1000880000F04AEF00F0FFFF41EF00F0FFFFC9CF9B
:1000980083FFC68876EF00F0FFFFC7BA56EF00F07F
:1000A80059EF00F0FFFF76EF00F0FFFFC7A45FEF06
:1000B80000F062EF00F0FFFF76EF00F0FFFFC9CF1E
:1000C80001F0026A015090EC00F0C79081CFC9FF9F
:1000D800C688FFFFC7B073EF00F076EF00F0FFFFB0
:1000E8006DEF00F0FFFF9E96FFFF05921100FFFFE6
:1000F800BCEF00F0FFFF046E9486948804C0C8FF2C
:10010800800EC76E360EC66E010EC56E9E969D8613
:10011800F28CF28E1200FFFFFFFF036EFFFFACA20E
:1001280098EF00F09BEF00F0FFFF92EF00F0FFFF69
:1001380003C0ADFF1200FFFFFFFFFFFF190EAF6EF8
:10014800F28EF28C949C948EAB8E9D8AAB98AB8881
:10015800640EAC6E1200FFFFFFFFA1EC00F0936885
:10016800AA0E7EEC00F0FFFFB7EF00F07CEF00F086
:10017800026A016A059005920001B0EF00F0FFFFE6
:020000040020DA
:08000000FFFFFFFFFFFFFFFF00
:020000040030CA
:0E000000FF270F0EFF0185FF0FC00FE00F401E
:00000001FF
