:040000002FEF3FF0AF
:107E5E00000161EF3FF04AEC3FF0C5841200016E65
:107E6E004AEC3FF001C0C9FF4AEC3FF0C55012008A
:107E7E00C580C5B045EF3FF047EF3FF040EF3FF014
:107E8E009E96C7501200A1B64FEF3FF051EF3FF054
:107E9E004AEF3FF0C7B056EF3FF058EF3FF051EFCB
:107EAE003FF0C7B45DEF3FF05FEF3FF051EF3FF0B3
:107EBE009E961200A00E0E6E860E0F6E010E106EA6
:107ECE00000E116E80EC3FF03FEC3FF0AA0E36EC48
:107EDE003FF0480E36EC3FF032EC3FF0340E166EAB
:107EEE00F20EE82EFED7162EFCD76BEF3FF000EF0A
:107EFE0000F094869488280EC66E000EC56E000E95
:107F0E00016E090E026E3D0E036E000E046E0EC063
:107F1E0012F00FC013F010C014F011C015F0020EC5
:107F2E00D8901236133614361536E82E97EF3FF0EA
:107F3E0012C005F013C006F014C007F015C008F00B
:107F4E00AEEC3FF00104C86E800EC76E1200000E3C
:107F5E00096E000E0A6E000E0B6E000E0C6E0550B2
:107F6E00061007100810D8B4BFEF3FF0C1EF3FF076
:107F7E00F7EF3FF0010E0D6ECBEF3FF0D8900536C8
:107F8E000636073608360D2A08AED0EF3FF0D2EF90
:107F9E003FF0C5EF3FF0D89009360A360B360C3657
:107FAE000550015C065002580750035808500458FB
:107FBE00D8A0E4EF3FF0E6EF3FF0EFEF3FF00550D3
:107FCE00015E0650025A0750035A0850045A09809F
:107FDE00D89008320732063205320D2ED2EF3FF01E
:107FEE0009C001F00AC002F00BC003F00CC004F08F
:027FFE0012006F
:020000040020DA
:08000000FFFFFFFFFFFFFFFF00
:020000040030CA
:08000000FFE70F0EFF0103FFF3
:00000001FF
